:020000040800F2
:10000000D0070020DD0100088B170008AB160008A0
:1000100089170008F3060008C51F0008000000004B
:10002000000000000000000000000000411E000869
:10003000F506000800000000091D0008431E000826
:10004000F7010008F7010008F7010008F7010008B0
:10005000F7010008F7010008F7010008F7010008A0
:10006000F7010008F7010008F7010008F701000890
:10007000F7010008F7010008F7010008F701000880
:10008000F7010008F7010008F7010008F701000870
:10009000F7010008F7010008F7010008F701000860
:1000A000F7010008F7010008F7010008F701000850
:1000B000F7010008F7010008F7010008F701000840
:1000C000F7010008F7010008F7010008F701000830
:1000D000F7010008F7010008F7010008F701000820
:1000E000F7010008F7010008F7010008F701000810
:1000F000F7010008F7010008F7010008F701000800
:10010000F7010008F7010008F7010008F7010008EF
:10011000F7010008F7010008F7010008F7010008DF
:10012000F7010008F7010008F7010008F7010008CF
:1001300000F002F800F042F80AA090E8000C8244B7
:100140008344AAF10107DA4501D100F037F8AFF294
:10015000090EBAE80F0013F0010F18BFFB1A43F0A5
:10016000010318470429000024290000103A24BF85
:1001700078C878C1FAD8520724BF30C830C144BF0C
:1001800004680C607047000000230024002500264E
:10019000103A28BF78C1FBD8520728BF30C148BFEA
:1001A0000B607047642900F07580782900F0AE80FC
:1001B000002070471FB51FBD10B510BD00F05FFADD
:1001C0001146FFF7F7FF01F015FF00F07DFA03B4C9
:1001D000FFF7F2FF03BC00F085FA000009488047F2
:1001E00009480047FEE7FEE7FEE7FEE7FEE7FEE719
:1001F000FEE7FEE7FEE7FEE704480549054A064B31
:1002000070470000A51E000831010008D001002041
:10021000D0070020D0030020D00300200FB41CB56D
:10022000074B06AA7B4469460090059800F00FFA38
:100230000020694600F01EFA1CBC5DF814FB0000AB
:100240004D04000070B5044685690068C10601D5FB
:10025000302600E02026C00707D070BDD4E9012178
:1002600030469047206A401C20626D1EF6D570BD56
:1002700070B5044685690078C00707D170BDD4E920
:10028000012120209047206A401C20626D1EF6D577
:1002900070BD00002DE9F041064600241068752964
:1002A000314616A510D0AFF30080002802DA404294
:1002B00013A507E031688A0701D512A502E04907B6
:1002C00004D511A5012401E0AFF3008000210A222A
:1002D00006F1240709E0B0FBF2FCB0FBF2F302FBED
:1002E0001C00303078541846491C0028F3D12346AE
:1002F0002A463046BDE8F04100F04BB9000000004E
:100300002D0000002B0000002000000070B5044606
:100310000D4621461068AFF300802188090502D5FB
:100320000F4A7A4402E00E4A7A440E32002104F168
:10033000240305E000F00F060009965D5E54491C99
:100340000028F7D120780023000704D5702D02D0B3
:1003500009B1022311322046BDE8704000F019B9FE
:100360002B2600002DE9F05F894604464FF0000A75
:10037000DFF824B1FB44C0F820A02046E16888479C
:1003800000287DD0252806D0D4E901219047206A95
:10039000401C2062F1E700255F462046E16888475F
:1003A0002028064607DB312E05D2B81910F8200C9C
:1003B00008B10543F1E7A80701D525F00405C4F805
:1003C0001CA00027C4F818A02A2E09D0304601F03E
:1003D0000AFE38B304EB8708303EC8F8186019E00D
:1003E00059F8041B204604EB87029161E1688847B5
:1003F000012F064618D1E069002820DA25F02005F3
:100400001DE0D8F8180000EB800006EB4000303803
:10041000C8F818002046E1688847064601F0E3FD69
:100420000028EED1012F0AD02E2E08D12046E168F7
:1004300088477F1C0646022F45F02005C4DBA069D3
:10044000002803DA404245F00105A061E80701D029
:1004500025F01005A6B1A6F14100192802D82036D2
:1004600045F400654A463146204625604D46FFF773
:1004700099FE60B1012807D0ED1D25F0070000E0CE
:1004800007E000F1080978E705F1040975E730464F
:100490007AE7206ABDE8F09F0126000010B5431CF2
:1004A00002E010F8011B71B18107FAD14FF001325F
:1004B00002C88C1A8C4314EAC211F9D0C01A0A0679
:1004C00003D0C01E10BDC01A10BD0A0401D0801E8A
:1004D00010BD0902FCD0401E10BD10B5203AC0F07E
:1004E0000B80B1E81850203AA0E81850B1E8185035
:1004F000A0E81850BFF4F5AF5FEA027C24BFB1E872
:100500001850A0E8185044BF18C918C0BDE81040E2
:100510005FEA827C24BF51F8043B40F8043B08BFEB
:100520007047D20728BF31F8023B48BF11F8012BB2
:1005300028BF20F8023B48BF00F8012B70474FF05E
:10054000000200B5134694469646203922BFA0E823
:100550000C50A0E80C50B1F12001BFF4F7AF09072F
:1005600028BFA0E80C5048BF0CC05DF804EB890020
:1005700028BF40F8042B08BF704748BF20F8022B63
:1005800011F0804F18BF00F8012B7047704770477B
:1005900070472DE9F0470D4699469246044600F112
:1005A00024080168880604D5E06921F01001216063
:1005B00000E00120A84201DD471B00E00027A169FF
:1005C0007A1902EB0900081AA0612078C00602D44B
:1005D0002046FFF737FE002608E0D4E901211AF88B
:1005E00006009047206A401C761C20624E45F4DBD2
:1005F0002078C0060AD52046FFF724FE06E0D4E99D
:10060000012130209047206A401C2062381EA7F14B
:100610000107F4DC07E0D4E9012118F80500904750
:10062000206A401C2062281EA5F10105F3DC20464B
:10063000FFF71EFE2078000602D50220BDE8F087F5
:100640000120FBE701694A1C02610878704700B588
:100650008FB0CDE901310021059105497944CDE9FB
:10066000031011466846FFF77DFE0FB000BD000085
:10067000E5FFFFFF0A6802F8010B0A607047754644
:1006800000F02CF8AE4605006946534620F00700FE
:10069000854618B020B5FFF7AFFDBDE820404FF00C
:1006A00000064FF000074FF000084FF0000B21F05C
:1006B0000701AC46ACE8C009ACE8C009ACE8C00929
:1006C000ACE8C0098D46704710B50446AFF3008012
:1006D0002046BDE81040FFF77ABD00000048704793
:1006E0007001002001491820ABBEFEE72600020081
:1006F0007047FEE77047000070B5044600F010F93F
:100700000546601C02D004480078044400F008F953
:10071000401BA042FAD370BD280000202DE9F84FFD
:10072000DFF8C891002409F1040A0AF1040B2346FA
:100730000F270BF1040ED1E00125A54006EA0502C2
:10074000AA4276D1DFF8A8C14E68A6EB0C08664530
:100750002BD00DDC032E34D005DC36B3012E19D09E
:10076000022E2FD11BE0112E16D0122E2AD119E005
:10077000B8F5881F19D006DCB8F5803F15D0B8F55C
:10078000801F1FD111E0B8F5001F0ED0B8F5041F6F
:1007900018D10AE0CB6815E0CB681B1D12E0CB68CE
:1007A00008330FE0CB680C330CE08B682BB1012BC6
:1007B0004FF0080303D0456104E0042302E0056123
:1007C00000E00023FF2A01D8064601E000F10406FC
:1007D0004FEA840501D9A5F12005D6F8008007FA73
:1007E00005FC28EA0C0803FA05F548EA0508C6F8EE
:1007F00000804D68ED0070D53E4DAE6946F00106B3
:10080000AE61AD6924F0030605F0010500953A4D8F
:1008100006EB050CDCF80850A607360F07FA06F8B9
:1008200025EA0805DFF8D480404503D14FF00008E1
:1008300025E052E0DFF8C880404502D14FF00108C2
:100840001DE0DFF8C080404502D14FF0020816E0FD
:10085000DFF8B480404502D14FF003080FE0DFF825
:10086000AC80404502D14FF0040808E0DFF8A080DA
:10087000404502D14FF0050801E04FF0060808FAA4
:1008800006F848EA0508CCF808804D68D9F80060F9
:10089000ED034D4601D5164300E096432E604D68AA
:1008A000DAF80060AD03554601D5164300E09643E3
:1008B0002E604D68DBF80060ED025D4601D5164301
:1008C00000E096432E604D68DEF80060AD0275468C
:1008D00001D5164300E096432E60641C0A68164654
:1008E000E2407FF429AFBDE8F88F0000000401402A
:1008F00000001110001002400000014000080140FB
:10090000000C01400010014000140140001801409B
:10091000001C01400AB1016170470904FBE70000B7
:100920000148806870470000280000200248816864
:10093000027811448160704728000020074810B5F4
:10094000016841F010010160032000F067F80F20FA
:1009500000F006F800F024F8002010BD002002404E
:1009600070B50D4D04464FF47A712878B1FBF0F064
:100970000A490968B1FBF0F000F0C1FD48B9102C3C
:1009800007D200222146501E00F028F800206C609B
:1009900070BD012070BD0000280000203400002040
:1009A0000C4808B5816941F001018161816901F05C
:1009B00001010091C16941F08051C161C06900F03D
:1009C000805000900448416821F0E06141F00071DE
:1009D000416008BD0010024000000140F0B40E4B21
:1009E0001B680C46C3F30223C3F10705042D00D98D
:1009F0000425191D072901D2002300E0DB1E012672
:100A000006FA05F1491E214099409E40761E164087
:100A10003143F0BC01F0D7BA0CED00E0064900F01C
:100A2000070208684FF6FF03184040EA0220034A15
:100A300010430860704700000CED00E00000FA056C
:100A40002DE9F0470F46050061D0434E306800F0B5
:100A50000700B84209D2306820F007003843306000
:100A6000306800F00700B84251D128683B4C81073C
:100A700012D5400703D5606840F4E06060602878D4
:100A8000000703D5606840F4605060606068A96842
:100A900020F0F000084360602878C00728D068681C
:100AA000012810D02168022810D0890700292EDAE9
:100AB000616821F0030101436160FFF731FF804667
:100AC00041F288390DE021688903EFE78901EDE7FC
:100AD000FFF726FFA0EB0801494502D90320BDE836
:100AE000F0876068696800F00C00B0EB810FEFD10F
:100AF000306800F00700B8420BD9306820F00700DA
:100B000038433060306800F00700B84201D001205F
:100B1000E5E72878400705D56068E96820F4E060DB
:100B2000084360602878000706D56068296920F4CA
:100B3000605040EAC100606000F038F86168084A1F
:100B4000C1F30311515CC8400649086006480068BB
:100B5000FFF706FF0020C2E700200240001002401D
:100B600039290008340000202C00002004480549E1
:100B700000684968044AC1F30221515CC8407047CB
:100B800034000020001002404929000804480549AB
:100B900000684968044AC1F3C221515CC8407047EB
:100BA00034000020001002404929000812A185B03D
:100BB0000FC98DE80F0014A0144A00680490516812
:100BC000134801F00C03042B10D0082B0ED1C1F3F5
:100BD0008343C9031DF803000AD5516804AAC1F371
:100BE0004041515C0A4A5043B0FBF1F005B07047F8
:100BF00008494843FAE7000002030405060708090C
:100C00000A0B0C0D0E0F1010010200000010024024
:100C100000127A0000093D002DE9F84F040070D061
:100C20002078C04DC00749D06868C0F38100012812
:100C300007D06868C0F38100022809D16868C00342
:100C400006D52868800339D560680028E7D035E0EC
:100C50006068B0F5803F0BD010B1B0F5A02F11D077
:100C6000286820F480302860286820F4802002E082
:100C7000286840F480302860606890B1FFF750FE2B
:100C800006460AE0286840F480202860F0E700BFAC
:100C9000FFF746FE801B642873D828688003F7D5C9
:100CA0000CE0FFF73DFE064605E000BFFFF738FE0B
:100CB000801B6428F0D828688003F7D420789A4EE7
:100CC00080074FF001094FF0000839D5686810F02F
:100CD0000C0F07D06868C0F38100022809D168684A
:100CE000C00306D42868800714D52069012808D1DC
:100CF00010E02069B0B1C6F80090FFF711FE07467A
:100D000005E00AE1FFF70CFEC01B0228C4D82868E2
:100D10008007F7D52868616920F0F80040EAC10033
:100D200028600DE0C6F80080FFF7FAFD074604E0F2
:100D3000FFF7F6FDC01B022823D828688007F7D4E8
:100D4000207800072CD57948A169D9B1C0F8009066
:100D5000FFF7E6FD074604E0FFF7E2FDC01B0228AF
:100D60000FD8686A8007F7D571484FF4FA510068C8
:100D7000B0FBF1F0009000BF0098411E0091FAD244
:100D80000EE080E0C0F80080FFF7CAFD074604E0EF
:100D9000FFF7C6FDC01B022875D8686A8007F7D424
:100DA0002078400760D5E8690027C00008D4E869CA
:100DB00040F08050E861E869012700F08050009021
:100DC0005C480168C90513D40168834641F4807109
:100DD0000160FFF7A5FD824606E000BFFFF7A0FD1A
:100DE000A0EB0A0064284ED8DBF80000C005F5D55A
:100DF000E06801280AD008B1052813D0286A20F03D
:100E000001002862286A20F0040002E0286A40F00D
:100E100001002862E06841F2883B98B1FFF780FD4D
:100E200082460BE0286A40F004002862EEE700BF2B
:100E3000FFF776FDA0EB0A0159455AD8286A8007CA
:100E4000F6D50CE0FFF76CFD824605E0FFF768FD84
:100E5000A0EB0A0159454CD8286A8007F6D41FB187
:100E6000E86920F08050E861E06988B36968C1F3FF
:100E70008101022944D00228C6F8608004D0FFF71F
:100E80004FFD044638E034E0FFF74AFD074604E032
:100E9000FFF746FDC01B02282BD828688001F7D435
:100EA000206AB0F5803F05D16868A16820F4003061
:100EB00008436860D4E908010843696821F47411A3
:100EC00008436860C6F86090FFF72AFD044606E014
:100ED00025E000BFFFF724FD001B022809D8286881
:100EE0008001F7D51BE000BFFFF71AFD001B0228A9
:100EF00002D90320BDE8F88F28688001F4D40EE001
:100F00000128F7D06868226A00F48031914204D148
:100F1000616A00F47010884201D00120EAE70020E5
:100F2000E8E7000000100240000042428004424214
:100F3000340000200070004070B5040009D0606AE1
:100F4000002540B125616561A56294F8510040B16A
:100F50000CE0012070BD6068B0F5827FF4D0E561DF
:100F6000F2E784F85050204600F040F8022084F860
:100F700051002068016821F040010160A0882189AA
:100F800000F4827001F404410843A18901F4006176
:100F90000843217C01F002010843217D01F0010199
:100FA0000843218B01F400710843217F01F03801CF
:100FB000084394F8201001F080010843218D01F4CA
:100FC0000051084321680860A069042101EA10402B
:100FD000216848602068C16921F40061C1616565CC
:100FE000012084F85100002070BD000030B585B0AC
:100FF00000240094019402940394006814498842E8
:1010000023D11448816941F480518161816901F4DF
:1010100080510491816941F00401816180690E4D24
:1010200000F004000490A020009002200190032012
:10103000039069462846FFF771FB4020CDE9000484
:10104000694628460294FFF769FB05B030BD0000F1
:101050000030014000100240000801402DE9F84F27
:10106000044640680025984616460F464FF0040B8C
:10107000B0F5827F01D1A06888B194F850000128B2
:1010800018D0012084F85000FFF74AFC814694F8FC
:1010900051004FF0000A01280ED0022582E084F8AA
:1010A00051B013460A462046CDF8008000F036F9CC
:1010B000BDE8F88F0220FBE7002F72D0002E70D021
:1010C00084F851B0C4F854A0A763A687E687C4F893
:1010D00030A0A4F834A0A4F836A0C4F840A0C4F806
:1010E00044A0A068B0F5004F09D12068016821F044
:1010F000400101602068016821F48041016020689E
:101100000168490603D4016841F040010160E068CC
:10111000D8B139E020688168C90709D0007BA16B8C
:101120000870A06B401CA063E08F401EE0870CE0BD
:10113000FFF7F6FBA0EB0901414503D3B8F1FF3FF0
:1011400003D036E0B8F1000F33D0E08F0028E1D1B2
:101150001DE020688168C90709D0C068A16B0880BC
:10116000A06B801CA063E08F401EE0870CE0FFF7BF
:10117000D7FBA0EB0901414503D3B8F1FF3F03D0F2
:1011800017E0B8F1000F14D0E08F0028E1D14A46F3
:101190004146204600F0B9FD08B120206065606D31
:1011A00000B10125012084F8510084F850A02846A0
:1011B0007EE70325F6E72DE9F84F044690F8500046
:1011C00000271D461646894601280DD04FF0010B19
:1011D00084F850B0FFF7A4FB804694F85100BA465B
:1011E000012804D0022793E00220BDE8F88FB9F16E
:1011F000000F73D0002E71D0032084F85100C4F882
:1012000054A0C4F83090A686E686C4F838A0A4F8A6
:101210003CA0A4F83EA0C4F844A0C4F840A0A06834
:10122000B0F5004F09D12068016821F0400101604C
:101230002068016841F48041016020680168490626
:1012400003D4016841F040010160E068B0F5006F2F
:10125000606803D030B3012E24D041E008B1012EE4
:101260001CD1206B21680088C86006E02068816876
:10127000890709D5216B0988C160206B801C206318
:10128000E08E401EE08609E0FFF74AFBA0EB080075
:10129000A84202D3681C01D031E07DB3E08E002863
:1012A000E4D120E0206B21680078087306E0206814
:1012B0008168890709D5216B09780173206B401C6F
:1012C0002063E08E401EE0860AE0FFF729FBA0EBDA
:1012D0000800A84203D3681C02D010E017E06DB1EB
:1012E000E08E0028E3D142462946204600F03BFD2F
:1012F00008B120206065A06818B106E0FFE7032769
:1013000006E02068C16880680090606D00B1012728
:1013100084F851B084F850A0384666E72DE9F84FBC
:10132000044690F8500000270A9E1D4692468B46C0
:101330004FF0010901280ED0012084F85000FFF77A
:10134000EFFA804694F85100616801280CD0B1F59D
:10135000827F07D102E00220BDE8F88FA16809B9B9
:10136000042801D00227C2E0BBF1000F27D0BAF158
:10137000000F24D01DB394F85100042802D005209A
:1013800084F8510000206065C4F838A0E587A5877F
:10139000C4F830B0E586A5862064606420680168E2
:1013A000490603D4016841F040010160E068B0F5EE
:1013B000006F606805D0E8B3012D46D07FE00127BB
:1013C00095E008B1012D39D1206B21680088C860F3
:1013D000206B801C2063E08E401EE0862EE020689B
:1013E000816889070FD5E18E69B1B9F1010F0AD182
:1013F000216B0988C160206B801C2063E08E401E39
:10140000E0864FF0000920688168C9070CD0E18FA1
:1014100051B1C068A16B0880A06B801CA063E08FF5
:10142000401EE0874FF00109FFF77AFAA0EB0800B1
:10143000B04200E009E001D3701C50D1E08E0028DA
:10144000CDD1E08F0028CAD13FE0206B2168007821
:101450000873206B401C2063E08E401EE0862EE067
:101460002068816889070FD5E18E69B1B9F1010F54
:101470000AD1216B09780173206B401C2063E08E38
:10148000401EE0864FF0000920688168C9070CD033
:10149000E18F51B1C068A16B0870A06B401CA063C4
:1014A000E08F401EE0874FF00109FFF739FAA0EB0B
:1014B0000800B04202D3701C01D010E07EB1E08E73
:1014C0000028CDD1E08F0028CAD1424631462046BF
:1014D00000F049FC28B101272020606507E00327C0
:1014E00005E0A06818B92068C168806800900120F4
:1014F00084F85100002084F8500038462CE710B5DD
:10150000401EB0F1807F01D3012010BD4FF0E024D8
:1015100060610F21601700F056FD0020A0610720D8
:101520002061002010BD70B5040004D094F83D0087
:10153000002510B106E0012070BD84F83C50204623
:1015400000F022F8242084F83D002068C16821F4CE
:101550000051C160204600F0A7FC2068016921F419
:10156000904101612068416921F02A0141612068B0
:10157000C16841F40051C1602564202084F83D0019
:1015800084F83E00002070BD30B585B00024009482
:1015900001940294039400681449884223D11448AA
:1015A000C16941F40031C161C16901F400310491A4
:1015B000816941F00401816180690E4D00F00400F1
:1015C00004900420009002200190032003906946BB
:1015D0002846FFF7A3F80820CDE90004694628460D
:1015E0000294FFF79BF805B030BD000000440040B6
:1015F00000100240000801402DE9F843044690F82D
:101600003D001F4616460D4620284CD1C5B1BEB13F
:1016100094F83C00012846D0012084F83C004FF0AB
:101620000008C4F84080212084F83D00FFF778F9D5
:10163000A6848146E684A068B0F5805F03D004E00C
:101640000120BDE8F883206928B12E465FF000052F
:1016500084F83C800EE00026FAE78021204600F066
:101660007FFCA0B9AEB116F8010B21684860E08C90
:10167000401EE084E08C4B464FF0000200970028AB
:10168000EBD14FF04001204600F06AFC30B103205E
:10169000D7E735F8020BC0F30800E6E7202084F80E
:1016A0003D000020CDE70220CBE7FEE72DE9F04129
:1016B00086B0002420480094019402940394816928
:1016C00041F020018161816901F02001049181696B
:1016D00041F004018161816901F004010491816993
:1016E00041F0100181618069144F00F010004FF447
:1016F00088750490002229463846FFF70BF9DFF879
:101700004080002210214046FFF704F90095022690
:1017100001250396CDE9015469463846FEF7FEFFE0
:101720001020CDE90005CDE9024669464046FEF7A6
:10173000F5FF06B0BDE8F08100100240000801404E
:10174000001001400F4810B50D4901604FF482713F
:10175000416000218160C1604FF400720161C0E905
:1017600005122022C0E90721416281620A21C1627B
:10177000FFF7E2FB002801D072B6FEE710BD0000C3
:1017800000300140D4000020FEE7FEE708B500204D
:1017900000F00CF950208DF8000073208DF8010046
:1017A0006423022269460348FFF705FD012000F08B
:1017B000FDF808BD380000200449054A0968B1FB5E
:1017C000F2F14143491EFDD2704700003400002071
:1017D000C0C62D000020AFF3008070B5054600F0B4
:1017E0000BF90446C0F380166EB115B1C4F3420084
:1017F00028704021072000F051FAA00603D52021CF
:10180000072000F04BFA304670BD00000FB47CB5E5
:1018100014460D460646582209A95D48FEF75DFEAE
:101820005C4B0120DE60DD801C8100F0BFF80020F1
:1018300000F0B2F80520FEF75FFF0821002000F05D
:101840002DFA3F21012000F029FA0321022000F0A7
:1018500025FA0321084600F021FA0321042000F0B4
:101860001DFA0221052000F019FA0F21062000F0D0
:1018700015FA0E21072000F011FA0021082000F0CF
:101880000DFA0021092000F009FAE7248DF8034041
:101890008DF802408DF801408DF804408DF800402D
:1018A000052269460A2000F011FAC2208DF80300D3
:1018B0008DF802008DF801008DF804008DF800000D
:1018C000052269460B2000F001FAC3210C2000F02C
:1018D000E5F9C4210D2000F0E1F9C5210E2000F04A
:1018E000DDF9C6210F2000F0D9F98DF803408DF8FD
:1018F00002408DF801408DF804408DF8004005222B
:101900006946102000F0E2F90021112000F0C6F92C
:101910000021122000F0C2F90021132000F0BEF9CE
:101920000021142000F0BAF90021152000F0B6F9CA
:101930000021162000F0B2F9FFF728FF00211C203B
:1019400000F0ACF900211D2000F0A8F900F006FC21
:101950000F21084600F078F9032000F04FF901202C
:1019600000F01EF9022000F000F900F029F8202014
:1019700000F062F900F0EEF84C2000F00AF900F0F7
:1019800037F800F031F800F067F87CBC5DF814FB24
:101990003800002000000020020003480189C068D0
:1019A00000D00122FEF7B6BF00000020020003486D
:1019B000C188C06800D00122FEF7ACBF0000002043
:1019C00010B51D2000F088F820F004011D2000F063
:1019D00065F900211C2000F061F902490020C8705F
:1019E00010BD000000000020FF21E22000F056B9E9
:1019F000FF21E12000F052B9072000F06DB800008F
:101A00007FB504001248134D06D0062C1ED8022CB8
:101A100007D2005D052206E0DDE90212C5E90412E5
:101A2000F7E7005D012202A900F050F90848A97803
:101A3000801F005D00F032F9022000F04DF8012116
:101A4000A1400843C1B2022000F028F97FBD000088
:101A5000322900080000002010B5002000F03CF8FA
:101A600020F00201BDE81040002000F017B910B5C9
:101A700000F010F8172000F02FF800F00104FFF735
:101A8000B3FF602000F028F80CB1012010BD002049
:101A900010BD000038B505460D4884788C4200D949
:101AA0000C460020FFF782FF61208DF800006423C0
:101AB000012269460748FFF77EFB64232246294638
:101AC0000448FFF7CBFA0120FFF770FF38BD000094
:101AD000000000203800002038B504460020FFF741
:101AE00065FF04F01F008DF80000642301226946A1
:101AF0000848FFF760FB6423012206480DF101014D
:101B0000FFF7ACFA9DF801400120FFF74FFF204698
:101B100038BD000038000020F8B5044615460E46D2
:101B20000020FFF743FF04F01F008DF8000064233E
:101B3000012269460648FFF73EFB64232A463146E8
:101B40000348FFF78BFA0120FFF730FFF8BD0000D4
:101B5000380000207021072000F0A0B808B13F2114
:101B600000E00021012000F099B810B504460020E3
:101B7000FFF7B2FF20F00C011CB1012C06D041F0A0
:101B80000C01BDE81040002000F088B841F00801C9
:101B9000F7E77F2800D37F200146052000F07EB8BC
:101BA0002DE9F04107464FF000080620FFF794FFAB
:101BB000114D002620F028046E71022F0ED0012F47
:101BC00010D06E712146062000F068F80620FFF75D
:101BD00083FFA0420BD14FF0010809E06E7144F081
:101BE0002004EFE70120687144F00804EAE76E7111
:101BF0004046BDE8F08100000000002010B504461A
:101C00000620FFF769FF20F00601032C0DD0022CFF
:101C100005D0012C06D054B1042C06D007E041F0C9
:101C2000040104E041F0020101E041F00601BDE8D9
:101C30001040062000F032B8202800D320200149AF
:101C4000887070470000002000F00F0060F31F1143
:101C5000042000F023B8000010B50020FFF73CFF7F
:101C600040F00301002000F019F80B49D1E904010C
:101C7000084305D00849052210310A2000F026F853
:101C8000FFF7B6FEFFF7B0FE0120FFF785FEBDE8C7
:101C900010409620FFF790BD0000002038B50546A3
:101CA0000C460020FFF782FE45F020008DF8000072
:101CB0008DF801406423022269460348FFF77BFA4E
:101CC0000120FFF773FE38BD38000020F8B5044648
:101CD00015460E460020FFF769FE44F020008DF8FF
:101CE00000006423012269460648FFF764FA642372
:101CF0002A4631460348FFF75EFA0120FFF756FEF9
:101D0000F8BD0000380000207047F8B50446406870
:101D10004FF48273984217D1A0684FF48065B0F5F4
:101D2000004F01D0A8420FD12068066826F0400677
:101D300006606068984207D1A068A84204D100926A
:101D40000B460022012103E000920B460022802175
:101D5000204600F019F8002804D0606D40F0200003
:101D600060650320F8BD38B50B460092044600229A
:101D7000802100F009F8002804D0606D40F02000B8
:101D80006065032038BD00002DE9F8431E469146EA
:101D900088460446089DFEF7C3FD401B351AFEF732
:101DA000BFFD074625480068C0F3CB30684338E0E4
:101DB000701C37D0FEF7B4FDC01BA84203D215B18A
:101DC000009860B32CE02068416821F0E001416098
:101DD0006068B0F5827F0BD1A068B0F5004F02D0EB
:101DE000B0F5806F04D12068016821F040010160E6
:101DF000A06AB0F5005F09D12068016821F40051A4
:101E000001602068016841F400510160012084F8FC
:101E10005100002084F850000320BDE8F88300251D
:101E2000401E00902068816838EA010004D000213B
:101E30004945BDD10020F0E70121F9E73400002039
:101E40007047FEF773BD30B58FB028216846FEF7A6
:101E500076FB14210AA8FEF772FB01210804CDE9E4
:101E600000100024029402250491CDE907504FF49C
:101E7000E01009906846FEF7CFFE08B172B6FEE7A3
:101E80000F20CDE90A054FF48060CDE90C40022116
:101E90000AA80E94FEF7D4FD002801D072B6FEE722
:101EA0000FB030BD7047000070B50446006801698E
:101EB000E26821F44051114301612169A06808439F
:101EC000616908432168CA6841F20C639A4302437E
:101ED000CA6020684169A26921F4407111434161DF
:101EE0001E492068884202D1FEF750FE01E0FEF74D
:101EF0003DFE00EBC00101EB001260686421800030
:101F0000B2FBF0F3B3FBF1F36FF018067343B2FBCF
:101F1000F0F5B2FBF0F605EB8305322303EB051574
:101F2000B5FBF1F5B6FBF1F605F0F00505EB06158E
:101F3000B2FBF0F6B2FBF0F0B0FBF1F06FF018027C
:101F4000504306EB800003EB0010B0FBF1F021687A
:101F500000F00F002844886070BD00000038014088
:101F60002DE9F041984617460E460446069D1DE0B1
:101F7000681C1BD02DB1FEF7D3FCA0EB0800A842D3
:101F800014D92068C16821F4D071C160206841690A
:101F900021F001014161202084F83D0084F83E00D9
:101FA000002084F83C000320BDE8F0812068006830
:101FB00036EA000004D00020B842D9D00020F3E770
:101FC0000120F9E7FEE70907090E002804DB00F10C
:101FD000E02080F80014704700F00F0000F1E020CE
:101FE00080F8141D704730380A2801D2012070474C
:101FF00000207047ACB0FEF7A1FCFFF724FFFFF70D
:1020000055FBFFF79FFB4C4C4A480C2120604FF4D6
:10201000E13060600020A060E060C4E90401A061DC
:10202000E0612046FFF77FFA08B172B6FEE7424949
:102030003622583915A8FEF750FA3F4D583DE88E24
:10204000ADF88A00A86B2390A88FADF89000E88FB8
:10205000ADF89200112205F1400125A8FEF73DFAE6
:1020600095F851008DF8A500686D2A90542216A9A4
:102070006846FEF732FA314D102211462846159B6C
:10208000FFF7C4FB26222C490DA8FEF726FAE08CA8
:10209000ADF85A0028482830016817918088ADF8BB
:1020A0006000E08DADF86200206B19902249092292
:1020B00034311AA8FEF711FA94F83D008DF871003A
:1020C00094F83E008DF87200206C1D90342211A906
:1020D0006846FEF702FA0DF1340C9CE80F0000F0A0
:1020E00031F800F03BF80020FFF738FD2020FFF723
:1020F000A3FD1348D0E902230120FFF781FCFFF77D
:10210000ABFDAC150E4E0EE001210D48FFF7AFFC04
:1021100030686F280CD0002221462846FEF7FAFBD3
:102120000220FEF7E9FAFFF755FB0028FBD0EBE7AA
:102130000122F1E7004400402C010020000801408A
:10214000180000200FB4442210B502A90248FEF77F
:10215000C4F910BC5DF814FB9000002010B5A0B0CD
:10216000F4A104A8FEF75AF804A8FEF797F982B282
:102170000A2304A9FC48FFF73FFA0020FFF7ACFC54
:1021800001077AD5400701D5F8A100E0FEA104A817
:10219000FEF744F804A8FEF781F982B20A2304A9E5
:1021A000F148FFF729FA0120FFF796FCC0F340142D
:1021B000C0F30013C0F3C002C0F380018DE81E001D
:1021C00000F00102C0F34003F64904A8FEF726F828
:1021D00004A8FEF763F982B20A2304A9E248FFF7D4
:1021E0000BFA0220FFF778FCC0F34014C0F3001391
:1021F000C0F3C002C0F380018DE81E0000F00102B0
:10220000C0F34003E84904A8FEF708F804A8FEF765
:1022100045F982B20A2304A9D348FFF7EDF9032058
:10222000FFF75AFC00F00302E0A104A8921CFDF79E
:10223000F5FF04A8FEF732F982B20A2304A9CA48BE
:10224000FFF7DAF90520FFF747FC00F07F02DEA177
:1022500004A8FDF7E3FF04A8FEF720F982B20A23E1
:1022600004A9C148FFF7C8F90620FFF735FC04466A
:10227000000704D5D9A103E0FFE7DEA187E7E2A1CB
:1022800004A8FDF7CBFF04A8FEF708F982B20A23E1
:1022900004A9B548FFF7B0F9032010EA540006D0AE
:1022A000012806D0022806D0032806D009E0DCA1C8
:1022B00004E0E0A102E0E4A100E0E8A104A8FDF749
:1022C000ADFF04A8FEF7EAF882B20A2304A9A648E3
:1022D000FFF792F905221DA90A20FFF71DFC9DF8C2
:1022E00076009DF874209DF875108DE807009DF824
:1022F00077309DF87820DEA104A8FDF78FFF04A8B1
:10230000FEF7CCF882B20A2304A99748FFF774F9C4
:1023100005221DA90B20FFF7FFFB9DF876009DF815
:1023200074209DF875108DE807009DF877309DF8B2
:102330007820DBA104A8FDF771FF04A8FEF7AEF832
:1023400082B20A2304A98848FFF756F901221DA981
:102350000C20FFF7E1FB9DF87420DDA104A8FDF738
:102360005DFF04A8FEF79AF882B20A2304A97E480A
:10237000FFF742F901221DA90D20FFF7CDFB9DF8C3
:102380007420DDA104A8FDF749FF04A8FEF786F834
:1023900082B20A2304A97448FFF72EF901221DA96D
:1023A0000E20FFF7B9FB9DF87420DDA104A8FDF70E
:1023B00035FF04A8FEF772F882B20A2304A96A481E
:1023C000FFF71AF901221DA90F20FFF7A5FB9DF8C1
:1023D0007420DDA104A8FDF721FF04A8FEF75EF834
:1023E00082B20A2304A96048FFF706F905221DA955
:1023F0001020FFF791FB9DF876009DF874209DF862
:1024000075108DE807009DF877309DF87820D8A1E9
:1024100004A8FDF703FF04A8FEF740F882B20A23E0
:1024200004A95148FFF7E8F81120FFF755FB00F029
:102430003F02DAA104A8FDF7F1FE04A8FEF72EF88A
:1024400082B20A2304A94848FFF7D6F81220FFF702
:1024500043FB00F03F02D8A104A8FDF7DFFE04A86B
:10246000FEF71CF882B20A2304A93F48FFF7C4F81C
:102470001320FFF731FB00F03F02D6A104A8FDF7BF
:10248000CDFE04A8FEF70AF882B20A2304A9364852
:10249000FFF7B2F81420FFF71FFB00F03F02D4A1B2
:1024A00004A8FDF7BBFE04A8FDF7F8FF82B20A23DB
:1024B00004A92D48FFF7A0F81520FFF70DFB00F049
:1024C0003F02D2A104A8FDF7A9FE04A8FDF7E6FF8C
:1024D00082B20A2304A92448FFF78EF81620FFF7DA
:1024E000FBFA00F03F02D0A104A8FDF797FE04A874
:1024F000FDF7D4FF82B20A2304A91B48FFF77CF83A
:102500001C20FFF7E9FAC0F34014C0F30013C0F336
:10251000C002C0F380018DE81E0000F00102C0F38C
:102520004003C84904A8FDF779FE04A8FDF7B6FFEB
:1025300082B289E10D0A2A2A2A2A2A2A2A2A2A2A42
:102540002A2A2A2A2A2A2A2A2A2A2A2A2A2A2A2AEB
:102550002A2A2A2A2A2A2A2A2A2A2A2A2A2A2A2ADB
:102560002A2A2A2A0D0A0000900000204352433AEA
:102570000D0A0909456E61626C65642C20322042A7
:1025800079746573200D0A004352433A0D0A090914
:10259000456E61626C65642C20312042797465203F
:1025A0000D0A00008C290008D02900085345545515
:1025B000505F41573A0D0A09092564206279746514
:1025C00073200D0A0000000052465F43483A0D0A8E
:1025D00009092564204348200D0A00004461746104
:1025E00020526174653A0D0A0909324D62707320F8
:1025F0000D0A00004352433A0D0A09094469736108
:10260000626C6564200D0A0044617461205261743B
:10261000653A0D0A0909314D627073200D0A0000F8
:1026200052465F5057523A0D0A09092D313864421B
:10263000200D0A0052465F5057523A0D0A09092DE3
:1026400031326442200D0A0052465F5057523A0D13
:102650000A09092D366442200D0A000052465F50D7
:1026600057523A0D0A0909306442200D0A00000051
:1026700052585F50697065302041646472733A0D3E
:102680000A0909253032582C253032582C25303291
:10269000582C253032582C2530325820200D0A0075
:1026A00052585F50697065312041646472733A0D0D
:1026B0000A0909253032582C253032582C25303261
:1026C000582C253032582C2530325820200D0A0045
:1026D00052585F50697065322041646472733A0DDC
:1026E0000A090978782C78782C78782C78782C2539
:1026F00030325820200D0A0052585F5069706533FF
:102700002041646472733A0D0A090978782C78784C
:102710002C78782C78782C2530325820200D0A001F
:1027200052585F50697065342041646472733A0D89
:102730000A090978782C78782C78782C78782C25E8
:1027400030325820200D0A0052585F5069706535AC
:102750002041646472733A0D0A090978782C7878FC
:102760002C78782C78782C2530325820200D0A00CF
:1027700054582041646472733A0D0A0909253032B5
:10278000582C253032582C253032582C25303258D0
:102790002C2530325820200D0A00000052585F507E
:1027A000575F50303A0D0A09092564206279746533
:1027B00073200D0A0000000052585F50575F5031DF
:1027C0003A0D0A09092564206279746573200D0A9F
:1027D0000000000052585F50575F50323A0D0A090E
:1027E000092564206279746573200D0A00000000D9
:1027F00052585F50575F50333A0D0A09092564203B
:102800006279746573200D0A0000000052585F5011
:10281000575F50343A0D0A090925642062797465BE
:1028200073200D0A0000000052585F50575F50356A
:102830003A0D0A09092564206279746573200D0A2E
:10284000000000001C2A00080A2304A91C48FEF707
:10285000D3FE1D20FFF740F90446400701D519A11A
:1028600000E01EA104A8FDF7D9FC04A8FDF716FEA0
:1028700082B20A2304A91248FEF7BEFEA00701D5C2
:102880001CA100E022A104A8FDF7C8FC04A8FDF7E4
:1028900005FE82B20A2304A90948FEF7ADFEAFF295
:1028A0006C3104A8FDF7BAFC04A8FDF7F7FD82B26D
:1028B0000A2304A90248FEF79FFE20B010BD0000C5
:1028C00090000020454E5F44504C3A0D0A090945DE
:1028D0006E61626C6564200D0A000000454E5F4425
:1028E000504C3A0D0A090944697361626C656420B1
:1028F0000D0A0000454E5F41434B5F5041593A0D70
:102900000A0909456E61626C6564200D0A000000C9
:10291000454E5F41434B5F5041593A0D0A09094406
:10292000697361626C6564200D0A00001112131452
:1029300015160A0B0C0D0E0F100000000000000011
:102940000001020304060708090000000001020359
:102950000430313233343536373839414243444517
:1029600046403058003031323334353637383961EB
:10297000626364656640307800040000080000006F
:10298000000000000200010000100000454E41411F
:102990003A0D0A090950303A0925640D0A0909500F
:1029A000313A0925640D0A090950323A0925640DA6
:1029B0000A090950333A0925640D0A090950343AC5
:1029C0000925640D0A090950353A0925640D0A00E4
:1029D000454E5F5258414444523A0D0A090950305D
:1029E0003A0925640D0A090950313A0925640D0A8E
:1029F000090950323A0925640D0A090950333A0988
:102A000025640D0A090950343A0925640D0A09099B
:102A100050353A0925640D0A0000000044594E5013
:102A2000445F706970653A0D0A090950303A09250A
:102A3000640D0A090950313A0925640D0A09095043
:102A4000323A0925640D0A090950333A0925640D03
:102A50000A090950343A0925640D0A090950353A22
:102A60000925640D0A000000882A000800000020E3
:102A7000380000006C010008C02A0008380000205F
:102A80009807000088010008000000000000000016
:102A90000000000000000000000000000000000036
:102AA0000000000000000000E6E6E6E6E6E60000C2
:102AB0000100000010000000000000000024F400ED
:0400000508000131BD
:00000001FF
